:020000041000EA
:1000000000B5324B212058609868022188439860DF
:10001000D860186158612E4B002199600221596106
:100020000121F02299502B49196001219960352056
:1000300000F044F80222904214D00621196600F024
:1000400034F8196E01211966002018661A6600F04E
:100050002CF8196E196E196E052000F02FF8012189
:100060000842F9D1002199601B49196000215960AB
:100070001A491B48016001219960EB211966A021F2
:10008000196600F012F800219960164914480160C1
:100090000121996001BC002800D000471248134993
:1000A000086003C880F30888084703B5996A0420EC
:1000B0000142FBD001200142F8D103BD02B5186610
:1000C0001866FFF7F2FF186E186E02BD00000240BE
:1000D000000000180000070000035F00212200005C
:1000E000F4000018222000A00001001008ED00E03C
:1000F00000000000000000000000000074B24E7A12
:1001000000200420F7010010C3010010C5010010F9
:10011000C1010010C1010010C1010010C101001097
:10012000C1010010C1010010C1010010C701001081
:10013000C1010010C1010010C9010010CB01001065
:10014000CD010010CD010010CD010010CD01001037
:10015000CD010010CD010010CD010010CD01001027
:10016000CD010010CD010010CD010010CD01001017
:10017000CD010010CD010010CD010010CD01001007
:10018000CD010010CD010010CD010010CD010010F7
:10019000CD010010CD010010CD010010CD010010E7
:1001A000CD010010CD010010CD010010CD010010D7
:1001B000CD010010CD010010CD010010CD010010C7
:1001C00000BE00BE00BE00BE00BE00BE00F04BF888
:1001D000103800BEF2EB8871685000108450001097
:1001E0003402001090A31AE700202149086006C8D5
:1001F00081F3088810471F48006800282FD10DA4FC
:100200000ECC002902D000F012F8F9E71A491B4A77
:10021000002000E001C19142FCD1194988471949E9
:1002200088471949884700BEFDE701C901C29A42C3
:10023000FBD3704784500010C00000200C03002046
:10024000D05200100000042000000420D052001002
:1002500000100420001004200000000070470B482C
:1002600002F060FE0047EFF30580C0B27047000067
:1002700008ED00E0000000D0200300200C07002063
:10028000011500100D030010DD1500105756000079
:1002900006005250ABB36053145000100600525089
:1002A000861C030224500010060052505422A29DC6
:1002B0003450001005005250DE65F468D052001032
:1002C000F8B5C04610B5064C2378002B07D1054B76
:1002D000002B02D0044800E000BF0123237010BDB2
:1002E0004004002000000000E0410010044B10B565
:1002F000002B03D00349044800E000BF10BDC046F6
:100300000000000044040020E041001030B585B03A
:10031000192000F069F9D0231B06802292045A624A
:100320000121192000F04EF91F4C2022202120002D
:1003300003F0D0FD00F03CF8012302931433019345
:100340001A4D0095230020220021012000F060F8C2
:10035000002302931433019300942B0020220021E8
:10036000002000F055F8012000F00CF9012304E012
:10037000A022D2051269D2010ED5002BF8D0A022FE
:10038000D205126DD201F8D4074B084A2021002073
:1003900000F0ECF80023EBE7044B034A2021012096
:1003A00000F0E4F80123EAE72003002000400340C6
:1003B00070B59621134C0901200000F0BBF9022111
:1003C000002000F0E7F80221012000F0E3F8E26AE3
:1003D00010239343802676010B4D35432B60E1219A
:1003E0004902200000F064F9236BC022120213407E
:1003F000064A16433360E36A60225A406E23134074
:100400002B6070BD004003402C400340304003404F
:10041000F8B5CE46474680B505001700984608ABAC
:1004200004CB91461E780AAB1B78404C0C2832D87E
:100430003F4A1440C20214430C229443043A14432A
:100440003C4A14403C4A14403C4A144001221443A4
:100450003B4A1440022924D80C22944389000C43BF
:10046000012B3CD0022B55D0002B20D03F2E56D84C
:1004700034492140F4030C43AD01A023DB059C4625
:1004800065444B462B6043466B60AF602C61C0BC3B
:10049000B946B046F8BD2C4B2C4ABC212C4801F083
:1004A000A1F82C4B2C4ACA21294801F09BF81021B5
:1004B0000C4320339C43380003F02AFC03F0DEFC9D
:1004C00003F04EFC1F2804D81A49214084010C4334
:1004D000CCE7224B224ADE211D4801F083F810238D
:1004E0009C4310331C43380003F012FC03F0C6FC9D
:1004F00003F036FC1F2807D80E490C40800120432A
:100500008024E4000443B1E7144B154ADE2110486F
:1005100001F068F810210C4310310C43A6E7114B91
:10052000114AAE210A4801F05DF8C04610801F0054
:10053000FF87FFFF3FF8FFFFFFFFBFFFFFFFDFFF6A
:10054000FFFF7FFFFF7FE0FFE0410010104300103E
:100550000042001050420010E84200109442001087
:10056000D0420010A4420010B842001010B5800123
:10057000A024E405A4466044C4680360426081602E
:10058000C46010BD01238340A021C9058622D2008A
:100590008B50704710B58300084A944663441C682A
:1005A00040226240C02414408022520113431C6048
:1005B000C000034B9C466044416010BD04C0014034
:1005C00000400140C000074B9C466044090203689C
:1005D0005940C0239B00194080235B0118430160F0
:1005E0007047C0460440014010B501238340D0222B
:1005F0001206936293610521FFF7CCFF10BD000046
:10060000EFF3108072B6034B1B68002BFBD0BFF3D7
:100610005F8F70472C0100D0BFF35F8F024B002229
:100620001A6080F3108870472C0100D0F8B50600DE
:100630000C001500FFF7E4FFE308F718F15C072250
:100640002240012393400B4205D1DBB20B433B70A8
:10065000FFF7E2FFF8BD2100280000F0E1FF0000F5
:10066000034B1B6802201840431E9841C0B27047DC
:1006700000C00640002307E0054A9A189200BFF325
:100680005F8F0021116001331F2BF5D97047C046E1
:1006900040000034054A1078431CDBB21370172B5E
:1006A00002D9130010221A707047C0465802002069
:1006B00070B504000D00062001F0CCF8C000290040
:1006C00002F084FCC60908D00E4B9E4217D87F2347
:1006D000184001303500460800E001256562A66239
:1006E0002C3480208001044300232360062001F085
:1006F000B1F88000A901891902F068FC70BD0026DC
:10070000014DEBE7FEFF0000FFFF0000002909D0CC
:100710000A22064B9C466044434258414000044B29
:10072000C252704780225200F3E7C0460080FCBFEF
:100730000407002070B505000C00062001F08AF8BF
:10074000002829D0164B9D4227D08022D203154B7A
:100750001A60154B1A60154B9B6811009943FAD12A
:1007600000212800FFF7D2FF21002800FFF7A0FF9B
:100770002C002C34E96A60224A406E21114080220C
:100780005201224311600A4B2B6380239B012343B8
:1007900010221A600323AB6470BD80221204D6E7D6
:1007A0000080034000E0004000F0004000C0004036
:1007B0000103000070B505000C00080000F07AFB92
:1007C000200000F04BFC0849200000F08BFBFFF7F5
:1007D00061FF064B9C466044800068602C75A40055
:1007E000034BE55070BDC046C90A001040000034FC
:1007F000DC04002010B5002922D003681B7B99423D
:100800001ED8174B9C466144090183689C4661448D
:100810000C684968002A19D003681B7B9A4215D8D6
:1008200083680F488446624412019A18106853681E
:10083000020001208B4201D80ED00020C0B210BDB2
:10084000084B094A3B21094800F0CCFE054B064AFB
:100850003B21064800F0C6FEA242EFD8EDE7C046B5
:10086000FFFFFF0F78430010884500104043001041
:1008700010B500291ED0037B99421BD84B005B1892
:10088000033B0468A4466344002919D0002A1DD004
:10089000914221D0002A25D0047BA24222D80468AC
:1008A00050008018033820188170197800291FD152
:1008B0001A7010BD104B114A6921114800F092FEC8
:1008C000104B114A70310E4800F08CFE0F4B0E4A4F
:1008D00071210B4800F086FE0D4B0B4A722108482F
:1008E00000F080FE044B054A6921054800F07AFEBD
:1008F00041701A70DDE7C046AC430010DC450010C3
:10090000C843001014440010B845001020440010E3
:100910002C44001070B506000D001400002914D0FE
:10092000002A14D0806873689847002806D02200F7
:1009300029003000FFF79CFF280007E02A00210073
:100940003000FFF795FF200000E0100070BD0800A8
:10095000FCE70000F0B583B00500009201930AABFC
:100960001C780BAB1F78002C26D003685A7B94426E
:1009700007D10123002B19D1002C3BD1200003B05B
:10098000F0BD002C0CD01A7B944209D81A68630081
:100990001B19033BD3189B78002BEBD00123E9E70D
:1009A0003E4B3F4A69213F4800F01CFE3E4B3F4A08
:1009B00065213F4800F016FE03689C7B002CDBD0CD
:1009C00012D01A7B94420FD862001219033A1968A8
:1009D0008C46624451789973002900D1D973002361
:1009E000937053701370C7E72C4B2D4A69212D4823
:1009F00000F0F8FD002C3AD02B681B7B9C4236D8C7
:100A00002C4BE3181B01AA6894466344009A1A60B1
:100A1000019A5A60089A9A60099ADA602E68002C46
:100A20002BD030D0337B9C422DD863001B19033B65
:100A300032689446634400229A705A701A70717B2F
:100A400022003000FFF766FF7073844200D095E704
:100A5000287D009A019B00F08DFA061E01D0002F20
:100A600017D00C9B002B00D188E71E7086E7124B35
:100A7000124A3B210E4800F0B5FD114B114AA62148
:100A8000084800F0AFFD054B054A6921054800F014
:100A9000A9FD2868210000F0B7FCE2E7AC43001094
:100AA000DC450010C843001044440010E845001025
:100AB00040430010FFFFFF0F7843001088450010EF
:100AC0003C430010CC450010F0B5DE4657464E467C
:100AD0004546E0B58BB00990002308938200B24BE5
:100AE000D658370032E0B14BB14A3D21B14800F051
:100AF00079FDB14BB14A3B21B14800F073FDB14BD8
:100B0000B14A8C21AE4800F06DFDB04BAE4A902149
:100B1000AB4800F067FDA84BAD4A4021A84800F063
:100B200061FD2A686B68099800F024FA00239A4650
:100B300098467B68BFF35F8F00221A6086F31088A7
:100B40004346002B51D1002800D126E100F0BEF928
:100B500002000B1EC7DB0020002106900791786879
:100B6000EFF3108672B601680029FCD0BFF35F8FE7
:100B7000396888464C7B002C32D0BAD0097B8C4235
:100B8000B7D8944965182D01B9688C466544286822
:100B90006968801A99410029C3DC01D10028C0D1BD
:100BA0000021404600F026FCA042A8D12A686B68CC
:100BB00006920793AB689846EB689A464346002B2B
:100BC000A3D0002CA7D03B681B7B9C42A3D8631EFC
:100BD000FA68D35C08931B02184338610020A8E729
:100BE00000239A4698460020A3E7089B1B02234354
:100BF000994651461800C04705000E007A68EFF389
:100C0000108B72B6136859424B41D9B2002BF9D1FF
:100C1000BFF35F8F002E26DB002E52DD3B69002BD9
:100C200053D04B4572D100F051F902000B1E73DB1B
:100C30000100180052197341984202D804D1914220
:100C400002D901225242D317002B6BDB0021049101
:100C500001310391029451460191414600913800BF
:100C6000FFF778FE49E03B69002BD5D04B451CD1FE
:100C7000069A079B10001900521BB341994202D8F3
:100C800004D1904202D901225242D317002B12DB29
:100C90000021049101310391029451460191414692
:100CA00000913800FFF756FE27E04B4B464A9F2144
:100CB000434800F097FC3D4B3D4A3D213D4800F044
:100CC00091FC002E01D1002DA8D13A68002C45D00E
:100CD000537B9C422CD1012100293FD1D37B002B97
:100CE00042D1D473002C52D03B681B7B9C424ED81F
:100CF000FA68013C135D0133135500233B617A68A8
:100D0000BFF35F8F13608BF310881FE7324B2E4ABF
:100D1000A2212B4800F066FC244B254A3D212548A2
:100D200000F060FC214B224A3D21224800F05AFC91
:100D3000002C0DD0137B9C420AD863001B19033B87
:100D40001068844663449B78002BC5D00121C3E71B
:100D5000224B234A6921234800F044FC224B234ABA
:100D6000F721204800F03EFC002B0AD0117B8B427B
:100D700007D85900CB18033B11688C4663445C705C
:100D8000AFE7164B164A6921164800F02BFC0A4BB8
:100D90000F4A40210A4800F025FC0BB0F0BCBB46CE
:100DA000B246A946A046F0BDDC0400206C44001009
:100DB0005445001088440010784300108845001006
:100DC00040430010D04400106C450010E84400106F
:100DD00094450010FFFFFF0FF4440010AC430010D7
:100DE000DC450010C843001030450010A845001035
:100DF00010B50A4B5B68002B04D00A21084800F0AC
:100E00004DF910BD054C2300064A1021206800F062
:100E100011FA03212000FFF7CDFCEEE75C02002071
:100E2000F0060020F507001070B5EFF305833F20B2
:100E300018401038EFF3108C72B6194B1B68002B5A
:100E4000FBD0BFF35F8F012319008140154A516326
:100E5000154A12781400C440234214D0114B5C6A26
:100E60008300124D5B599C4206D38300104C1B59E2
:100E70008A430D490A7007E00A4A031D9B009958EE
:100E80009950002300E00023BFF35F8F044A002144
:100E900011608CF31088002B00D0984770BDC046BD
:100EA000280100D0004005400A070020F406002079
:100EB0005C04002010B50100024A0348FFF7B6FBAE
:100EC00010BDC0460046001008070020044B5B6AB6
:100ED000034A906A1900536A9942F9D17047C04693
:100EE0000040054070B504000D00EFF3108672B6A7
:100EF0001B4B1B68002BFBD0BFF35F8F002D1CD05A
:100F0000200000F01FFD174B83420BD0190020007A
:100F100000F020FD0121200000F00CFD0123A34082
:100F2000114A1360A400114BE550BFF35F8F0C4BC7
:100F300000221A6086F3108870BDA2000B4B0021BE
:100F4000D1500122A2400A490B7893430B70054906
:100F5000200000F029FD0021200000F0EBFCE4E778
:100F6000280100D0290E0010386005405C040020E4
:100F70000A070020F0B5DE4600B584B00400150075
:100F800001921E000293FFF7A1FF03958E4202D843
:100F90004ED185424CD9EFF3108B72B6274B1B68AC
:100FA000002BFBD0BFF35F8F254A17780125A540A2
:100FB000EBB23B431370234B5D63221D92000199FA
:100FC000D150A2002049029850501B6A2B4212D1E6
:100FD0001C4B1B6C2B4208D00020BFF35F8F174BBC
:100FE00000221A608BF3108823E0184B184AC121A5
:100FF000184800F0F7FAFFF769FF8E4214D802D1C3
:10100000039B834210D80E4B1B78BB420ED00D4B76
:101010001D625D631F2004400123A3400E4A13603C
:10102000074B1F701E38D8E70020D6E70120D4E711
:10103000012004B080BCBB46F0BDC046280100D0F2
:101040000A07002000400540F40600202446001056
:101050008C4600104846001080E200E0EFF3108C50
:1010600072B60B4B1B68002BFBD0BFF35F8F0123C5
:101070008340084A136208490A789A430A70BFF30A
:101080005F8F034B00221A608CF310887047C046B4
:10109000280100D0004005400A070020024B9C4672
:1010A00061448900016070474000003470B504005D
:1010B0000D00FFF7EFFA01002000FFF7EFFFFF231D
:1010C00023716571BFF35F8F70BD10B50021FFF70D
:1010D000EDFF10BD10B5FF21FFF7E8FF10BD0000C8
:1010E00010B500291ED0037B99421BD84B005B181A
:1010F000033B0468A4466344002919D0002A1DD08C
:10110000914221D0002A25D0047BA24222D8046833
:1011100050008018033820188170197800291FD1D9
:101120001A7010BD104B114A6921114800F05AFA8B
:10113000104B114A70310E4800F054FA0F4B0E4A12
:1011400071210B4800F04EFA0D4B0B4A72210848F2
:1011500000F048FA044B054A6921054800F042FABC
:1011600041701A70DDE7C046AC43001074480010AF
:10117000C8430010144400106048001020440010C0
:101180002C44001070B506000D001400002914D086
:10119000002A14D0806873689847002806D022007F
:1011A00029003000FFF79CFF280007E02A002100FB
:1011B0003000FFF795FF200000E0100070BD080030
:1011C000FCE7000010B50023437301338373037BF6
:1011D000C3730123027B9A4214D9002B0CD0027BEB
:1011E000934209D85A00D218033A01688C466244E7
:1011F0000133DBB25370EDE70B4B0C4A69210C480D
:1012000000F0F0F9002A09D0924207D80168530093
:101210009A18033A8A180023537010BD024B034AF0
:101220006921034800F0DEF9AC4300107448001057
:10123000C843001010B5017342608360FFF7C2FF1E
:1012400010BD000070B50400081E00D170BD00295B
:1012500034D0237B994231D84B005B18033B226882
:10126000944663445A78002AF0D02DD0237B9A42CA
:101270002AD853009B18033B21688C4663445D7851
:1012800000215970002825D0237B984222D84300A2
:101290001B18033B21688C466344002159700100F0
:1012A0002000FFF76FFF060029002000FFF7CAFFAC
:1012B000020031002000FFF765FFC7E7084B094A2D
:1012C0006921094800F08EF9054B064A6921064854
:1012D00000F088F9024B034A6921034800F082F9C3
:1012E000AC43001074480010C843001070B50500EE
:1012F0000C001600002928D02DD0037B99422AD853
:101300004B005B18033B0268944663445A78002AFA
:1013100027D19A78002A2AD11978FFF793FF030082
:10132000002E03D0EA7B002A27D1EC73002B37D1A3
:10133000002C49D02B7B9C4246D82B6861000C19AD
:10134000033C1C190023637070BD224B224A3821D4
:10135000224800F047F9224B224A6921224800F036
:1013600041F9224B1C4A3A211C4800F03BF9204B22
:10137000194A3B21194800F035F9002A0AD0297B87
:101380008A4207D851008A18033A29688C46624479
:101390005470CAE7124B134A6921134800F022F92E
:1013A000002B0BD02A7B934208D843001B18033B29
:1013B0002A689446634400229A70B9E7084B094AA8
:1013C0006921094800F00EF9054B064A69210648D3
:1013D00000F008F9804700104C48001088470010C2
:1013E000AC43001074480010C8430010C047001000
:1013F000E847001070B504000A00457B2900FFF79C
:1014000075FF6073280070BD70B50400002967D0B7
:10141000437B8B420ED0002911D0037B99420ED81A
:101420004B005B18033B0268D0188378002B0CD16B
:10143000002056E00121FFF7DDFF012051E0294B9C
:10144000294A6921294800F0CDF8002B20D0227BC1
:1014500093421DD85A00D318033B2268D21825683E
:10146000EB5C8B421AD0002B1BD0227B934218D806
:101470005A00D318033B2268D21853788B4216D0F7
:10148000002BF0D11A4B1B4A67211B4800F0AAF829
:10149000144B154A6921154800F0A4F843781370DD
:1014A00007E0104B104A6921104800F09BF8437880
:1014B000537000238370437001222000FFF716FF52
:1014C0000200617B814205D02000FFF75BFE607364
:1014D000012006E0094B074A6D21074800F082F819
:1014E000002070BDAC43001074480010C8430010C9
:1014F0000C480010344800108847001014480010B1
:1015000070B5264B264A1A60264B274A1A60274B8D
:101510009A68254B9343FAD1254C01E008CC9847B3
:10152000244B9C42FAD300F015F91E4B224A1A6054
:101530001E4B9B68DB43DB01FAD1204B40229A67AC
:101540005A671A67DA661E4C03E02000FFF7BDFDFC
:1015500008341C4B9C4206D26379002BF5D0200046
:10156000FFF7B8FDF4E7184CA168184DC022280019
:1015700002F0B6FCA560FEF776FE002800D000BEA3
:10158000FFF778F800F072FBFFF732FC104C01E037
:1015900008CC98470F4B9C42FAD370BD00E0004046
:1015A000BFCDFBFE00F00040FE7F3C0000C00040CD
:1015B000F802002008030020FFFFFF0100F00140B7
:1015C000F0020020F802002000ED00E00000002002
:1015D000080300200C03002000BEFDE710B5FFF754
:1015E000FBFF000010B582B00C001900002A0CD0DF
:1015F000084B002A0BD001920093230002000648FA
:1016000002F088FD0120FFF7E7FF044BF1E7034AF2
:10161000F1E7C04680480010904800108C48001048
:101620000FB400B583B0084802F044FD049B002BC2
:1016300007D005A90191180002F04AFD034802F005
:1016400039FD0120FFF7C8FFC0480010D048001046
:10165000F8B5DE4657464E464546E0B505000F0054
:1016600092460A9A93424ED31A0E91461E020A9A45
:1016700000233000494601F0EBFC80466C00641901
:10168000A4002F4B9C4664446368834200D2606090
:101690002B1FDBB29B46012B3BD9C0239B0123436D
:1016A000802212011A60AB00264A9958002905D001
:1016B000506901F08BFC01300138FDD153465A01CD
:1016C00023685A40E0231A4080235B0123431A60B9
:1016D0005A46012A28D980239B01234380221201E4
:1016E0001A6043466360424600233000494601F0D9
:1016F000AFFCAD00134B58510120F0BCBB46B246C5
:10170000A946A046F8BD104B104A2D211048FFF7FE
:1017100069FF012FC1D1C0239B01234303221A601B
:10172000A368DB07FCD5C9E72168794003220A409A
:101730001A60A2680123BB401342FAD0CBE7C0462F
:10174000008000406C040020D44800102C49001098
:10175000E848001030B583B00C2000F01FFBFEF706
:101760007FFF00280DD0002304E099002D4A2E4869
:1017700088500133092BF8D92A4B2C4A5A6203B0FE
:1017800030BD2B4B00229A6700F010FB294B012241
:101790001A60274B5B6C012BFBD1274B03221A608D
:1017A000234B9B6B012BFBD1022400940533234A6E
:1017B0000121234800F066FA00940523214A012103
:1017C000214800F05FFA214B0093002202210420FF
:1017D000FFF73EFF1E4D00952B0000220121052042
:1017E000FFF736FF104C0094230000220021072051
:1017F000FFF72EFF00942300002200210820FFF7AE
:1018000027FF0A4B00932300002200210920FFF745
:101810001FFF00952B00002200210620FFF718FF74
:10182000ADE7C0466C040020006CDC021BB7000072
:10183000008000403CB0004030B00040002F6859AC
:101840000080024000389C1C00C00240001BB70012
:10185000405973078000014BC05870476C0400204A
:10186000074B9B68103080001950BFF35F8FBFF3A8
:101870005F8F044B0021196082F310887047C046C7
:1018800000ED00E0240100D010B5091A0439480821
:10189000090B05D14005400D044B184380B210BD23
:1018A000034B044A8C210448FFF79CFE00E0FFFF35
:1018B0003C490010484B00104C49001010B5091A63
:1018C00004394C08090B08D14905490D064A114352
:1018D0000180064B2343438010BD054B054A9421EC
:1018E0000548FFF77FFEC04600F0FFFF00F8FFFF4E
:1018F0003C4900101C4B00104C4900100123834050
:10190000034A10681840431E9841C0B27047C04651
:1019100000E100E0002904D0034B1860034B18607D
:101920007047034B1860FBE780E200E000E100E055
:1019300080E100E010B5012383401800FFF7EAFFC3
:1019400010BD0000024B9B6810308000C0587047EB
:1019500000ED00E070B504000D00EFF3108672B6E4
:101960000C4B1B68002BFBD0BFF35F8F2000FFF7F1
:10197000E9FF094B984201D0A84205D13200290065
:101980002000FFF76DFF70BD044B054A702105482C
:10199000FFF728FE240100D0CD0100108C49001073
:1019A000644B00104C490010F0B5CE46474680B558
:1019B00083B006000D00EFF3108872B6574B1B681A
:1019C000002BFBD0BFF35F8F554B9A683400103467
:1019D000A300D758534B9F4207D0AF4200D19BE0A2
:1019E0000197514BFB1A2F2B09D942463900300081
:1019F000FFF736FF03B0C0BCB946B046F0BD3000BB
:101A0000FFF77CFF814600213000FFF793FFBFF313
:101A10005F8FFEF728FC002801D0844219D10123F2
:101A2000019C9C43230040495B1A5B414849594350
:101A3000090D49B20022A368AB4212D00622A25679
:101A4000002A0DDB53009B189B002200364CE41843
:101A5000F1E72021354B364AFF313648FFF7C2FD0A
:101A60002200AB4251D106256557002D39DB6B00B2
:101A70005B199A002C4B9B189A68A260DA79E27184
:101A800006229A56A2719B795BB2002B10DABD2018
:101A90000002A0806B005B199B00234AD318264AE2
:101AA00011789971157049463000FFF743FF9CE7A4
:101AB000201D6B005B199B001B4A9B181A1D9B88FD
:101AC000D90A1C2907D15B055B150233590051184F
:101AD000FFF7DAFEDDE7194B194A9A211548FFF79F
:101AE00081FD00280CD1002A08D0FF239371154BEB
:101AF0009380114B1A78A2711970D4E7094FF8E757
:101B0000201D1149FFF7DAFECDE7AA210F4B084A45
:101B100049000848FFF766FD024F66E7240100D040
:101B200000ED00E0CD01001084020020A04A00106A
:101B3000344B00104C49001009070020884A00105F
:101B4000544B001000BDFFFFBE020020C44A00102D
:101B5000AAAA000010B5032304009C43064A944639
:101B6000644422681840C000FC3383409A43130049
:101B700081400B43236010BD00E400E070B5040019
:101B8000012606432D4BF31A2F2B28D8FEF76BFBAB
:101B900000282BD0EFF3108C72B6294B1B68002B5A
:101BA000FBD0BFF35F8F2300244D5B1B5B412E4DA9
:101BB0005D432D0D6DB2234B9B6880001B58B342D3
:101BC0001BD00022032A32D853009B189B001B49CC
:101BD000CB189B795BB2AB421FD00132F2E7722186
:101BE000194B1A4AFF311A48FFF7FCFCBA21194B6E
:101BF000164A49001648FFF7F5FC124B9B68164A37
:101C00001A50164B1A78A2711D70BFF35F8F0C4BE0
:101C100000221A608CF3108870BD080053009918D8
:101C200089004118FF268E710D4A8A80E9E78621D6
:101C30000C4B064AFF310648FFF7D4FC8402002013
:101C4000240100D000ED00E0CC4A0010004B001051
:101C50004C490010F44A0010CD0100100907002083
:101C600000BDFFFF0C480010AAAA000010B5002418
:101C700004E080212000FFF76DFF01341F2CF8D90C
:101C800010BD0000F0B5CE4600B504000E00914630
:101C90001F000C2001F09AF9050043011B1A99015D
:101CA000C91AC90009188901484601F08FF90200D4
:101CB000103A98235B009A4233D87B1E062B36D805
:101CC000069B013B062B32D8069B9F4235D34B46E1
:101CD0001A09AA4237D33F04069B1D032F432368EA
:101CE000002B36DB234B9C4241D080225201224BF9
:101CF0001A60224B1A60224B9B6811009943FAD15B
:101D00002660A060231DC02292011A432123136084
:101D10002368002BFCDAE7600823136080BCB94617
:101D2000F0BD184B184A16211848FFF75BFC184BFA
:101D3000154A19211548FFF755FC164B124A1F2169
:101D40001248FFF74FFC144B0F4A22210F48FFF7B0
:101D500049FC22683F231340B342C3D1A3681B054B
:101D60001B0D8342BED1E368002FBBD1D6E7802292
:101D70009201BCE700C0024000E0004000F00040DB
:101D800000C00040804B00105C4C00109C4B0010C9
:101D9000DC4B0010284C0010404C001080239B00AE
:101DA0000343014AD362704700800540064BAA22D4
:101DB00012011A602F22DA60044B054A1A60024BA6
:101DC0005B68002BFBDA7047004002400060024075
:101DD00000B0FA00704710B5002802D00B684968BF
:101DE000984710BD0100002007E083001B185B002E
:101DF000501C08601078C01830380A681378303BDF
:101E0000DBB2092BF1D97047F0B5DE4657464E4696
:101E10004546E0B583B093461F000C9B9A460D9C47
:101E20000E9B99460F9B9B0703D0B8460F000600F8
:101E300022E00192A34688464E46B9460700B442C6
:101E400007D2551C4B4641462020B84701342A0092
:101E5000F5E73D004F465C46019B9B46B146464632
:101E6000B84637002E0007E0013C551C5346185D6C
:101E700043463900B0472A00002CF5D135003E001A
:101E800047460F9B9B0707D4100003B0F0BCBB462E
:101E9000B246A946A046F0BDB0464E46B9462F0010
:101EA0005D46531BB342EFD2541C4B4641462020A3
:101EB000B8472200F5E7F0B5CE46474680B585B075
:101EC000944698460C9D0D9C0EAB1B789946109A33
:101ED000119B129EB7071CD4002B0CD0F7070AD514
:101EE0004F46002F02D10C37374204D0013B02E0AD
:101EF00030272F550134944201D21F2CF8D9F7070F
:101F000007D59C4205D21F2C03D830272F5501340A
:101F1000F5E7F70615D5770505D4002C03D09442D4
:101F200024D09C4222D00F9A102A2BD00F9A102A2C
:101F300030D00F9A022A35D01F2C02D830222A55D1
:101F400001341F2C05D84A46002A31D02D222A55AB
:101F50000134039602930194009543466246FFF7CD
:101F600053FF05B0C0BCB946B046F0BD621E012C9F
:101F700006D00F9F102F01D01400D4E7023CD2E707
:101F80001400D0E7B206D1D41F2CCFD878222A551E
:101F90000134D1E7B206CCD51F2CCAD858222A5515
:101FA0000134C9E71F2CC7D860322A550134C3E772
:101FB000720703D52B222A550134CAE73207C8D548
:101FC00020222A550134C4E7F0B5DE4657464E4676
:101FD0004546E0B593B081468A46089209931CAB0A
:101FE00010CB1B789B461E9D219B9846002C03D14D
:101FF000102342469A4390468023DB0046461E400B
:1020000042461A4212D0002C22D000260EE0303375
:10201000D9B2771C0AAB99552900200000F0D6FFF1
:10202000AC4216D31F2F14D83E0004002900200014
:1020300000F0CCFFCBB2092BE9D94246920605D578
:102040004121C918C9B20A39C9B2E2E76121F8E7EA
:10205000270043460693209B05931F9B04930395FB
:102060005B46029301970AAB0093099B089A51467D
:102070004846FFF720FF13B0F0BCBB46B246A94666
:10208000A046F0BDF0B5DE4657464E464546E0B5A3
:1020900095B0089009910A920B931E9E1F9C20AB4D
:1020A0001B789B46229B9946239D269B9A4633008C
:1020B000234303D1103352469A4392468023DB00D8
:1020C00057461F4052461A4219D0330023432DD0A1
:1020D000002714E03033DAB27B1C98460CABDA559B
:1020E0004A462B003000210000F0B2FFA5421FD865
:1020F00019D043461F2B1BD8474606000C004A4602
:102100002B003000210000F0A3FFD3B2092BE1D94E
:102110005246920605D54122D218D2B20A3AD2B21C
:10212000DAE76122F8E7B145E3D901E000239846F8
:1021300053460693259B0593249B04934B46039398
:102140005B460293434601930CAB00930B9B0A9AA8
:1021500009990898FFF7AFFE15B0F0BCBB46B24630
:10216000A946A046F0BD0000F0B5DE4657464E46F3
:102170004546E0B591B083468A460C9298461A9C33
:1021800008941B9D099522002B002000290001F0D6
:10219000ECF9002800D0E5E001225242D74B2000A4
:1021A000290001F0DDF9002800D0DBE001225242D5
:1021B000D34B2000290001F0BDF9002800D0D1E068
:1021C00000220023089E3000099D290001F0B2F989
:1021D000002800D0DDE00898099906900791802337
:1021E000DB001E9A1A400D921E9A1A4201D1062354
:1021F0001C930698079904000D000A00060002438C
:1022000000D1D1E0080D4005400DBE4CA44660440D
:102210000A03120BBC4B13431F0001F0B9F9BB4A70
:10222000BB4B01F044F9BB4ABB4B01F019F9040068
:102230000D000022B94B3000390001F008F9B84A0E
:10224000B84B01F034F902000B002000290001F026
:1022500007F901F0B5F9814601F09AF904000D0083
:10226000B14AB24B01F023F90022B14B01F0F8F86A
:1022700001F0A6F90600AF4AAF4B2000290001F09B
:1022800016F904000D00300001F082F9AB4AAC4BA6
:1022900001F00DF902000B002000290001F0D7F831
:1022A00004000D0002000B0001F001F90A900B91EF
:1022B000A44BF31800261F0522002B002000290044
:1022C00001F0CEF80E900F9122002B00002080210B
:1022D000C90501F0BCF804000D0000229A4B0A98D1
:1022E0000B9901F0C6F80022984B01F0B9F80200F2
:1022F0000B000A980B9901F0BCF80022944B01F0F6
:10230000AFF802000B000A980B9901F0B2F8020036
:102310000B002000290001F0A3F802000B000E982A
:102320000F9901F0A6F80022774B01F099F83200DE
:102330003B0001F0BCF806000F0004000D00069AF7
:10234000079B01F00DF9002830D001235B429C4629
:10235000E14400227D4B3000390001F08AF804008E
:102360000D0023E01E9B04931D9B03931C9B029373
:10237000089A099B0092019343460C9A514658468D
:1023800000F0FCF811B0F0BCBB46B246A946A0462E
:10239000F0BD0023002406930794069680231B06B5
:1023A0009C46654407951AE7002399464B466333DC
:1023B000C62B1ED804261E9B1B0526D52B002343A7
:1023C0000FD0644A644B0698079901F0C1F80028C1
:1023D00079D00022614B0698079901F0ABF80028EC
:1023E00071D01C9B4B4506DD4A46981A431E1C9330
:1023F00003E00526DFE700231C938023DB001E9A01
:102400001A431E920026002399461D9B9E4264D2C9
:102410009F1B02231E9A1A400A921E9A134202D050
:10242000002E00D000274B46002B07D022002B00A7
:102430000698079901F01DF80690079100220023E5
:102440000898099901F076F8002848D1444B1E9A63
:102450001340049303971C9B0293069B079C0093D5
:10246000019443460C9A5146584600F087F8002ED6
:1024700000D187E71E9B9B063DD54525441C43465E
:10248000020051462800D8474B46DA179B185340A4
:1024900005220592013E0496002203920A3202921E
:1024A0004A46D00F019000934346220051465846B9
:1024B000FFF78AFD0A9B002B00D163E702005F460D
:1024C0000C9E1D9D54E01C9B002B9ED00D9B002B51
:1024D0009BD01C9B013B1C9397E7002799E7069C28
:1024E000079D2200290080200006844661440B00DD
:1024F00006920793AAE76525C0E7C046FFFFEF7F76
:10250000FFFFEFFF01FCFFFF0000F03FFB799F5052
:102510001344D33FB3C8608B288AC63F0000F83FFE
:1025200061436F63A787D23F71A379094F930A4034
:102530000000E03F1655B5BBB16B0240EF39FAFE23
:10254000422EE63FFF03000000002C400000244024
:10255000000018402D431CEBE2361A3F80842E41C8
:10256000FFF7FFFF541C434651462020B847220086
:10257000931BAB42F6D3100004E7C046F0B5DE462D
:1025800057464E464546E0B595B0069007919346AE
:102590009946209F1E9A1F9B1000190000F0E5FF2E
:1025A000002831D101225242BF4B1E981F9900F0E2
:1025B000C1FF002837D101225242BC4B1E981F99FF
:1025C00000F0CEFF00283DD10022B94B1E981F9984
:1025D00000F0C6FF002850D10022B64B1E981F996C
:1025E00000F0A8FF002848D1002200231E981F9960
:1025F00000F0A0FF002850D100239846229B5B05E5
:1026000000D4B6E0002458E0229B0393219B029360
:1026100003230193A84B00934B465A46079906980B
:10262000FFF7F2FB0EE1229B0393219B029304230D
:102630000193A24B00934B465A4607990698FFF721
:10264000E3FBFFE00423229A1A4022990B4210D0A8
:102650009B4B002A0FD004222299039121990291C9
:10266000019200934B465A4607990698FFF7CCFB18
:10267000E8E0944BEDE70322EEE7229B0493219BD5
:10268000039302971E9B1F9C009301944B465A464E
:1026900007990698FFF768FDD4E01E9A1F9B00205B
:1026A000002100F0D4FE1E901F9101239846A5E75B
:1026B0000CAB30221A55013F01341F2C01D8092FD1
:1026C000F6D81E981F9900F07BFF050000F060FF10
:1026D00002000B001E981F9900F0B9FEFA007A4B19
:1026E0009B181A685B680A920B9300F0E0FE089052
:1026F000099100F089FF060000F046FF02000B0080
:102700000898099900F0A3FE0890099100226F4BE8
:1027100000F026FF00282ED00136300000F034FFF4
:1027200002000B000A980B9900F00AFF002801D064
:1027300001350026002F2CD1280000F029FF0200CF
:102740000B001E981F9900F082FE06000F00002269
:102750005E4B00F0EFFE002846D100225B4B3000BC
:10276000390000F0FDFE00283ED1EB073CD50135D5
:102770003AE0062746E70022544B0898099900F0F2
:10278000D9FE0028D6D1002E01D0F307D2D50136CC
:10279000D0E7AA461F2C11D8013F0A21300000F0D3
:1027A00015FC651C30310CAB19550A21300000F0C6
:1027B0000DFC092E0ED906002C00EBE755461F2C08
:1027C0000CD87B1E002F09D00CAA302111551F00F8
:1027D0000134F4E72B0055461C00F0E71F2C03D80A
:1027E0000CAB2E221A5501341F2C10D80A212800B8
:1027F00000F0C4FB661C30310CAB19550A212800CF
:1028000000F0BCFB051E01D03400EDE734000323CB
:10281000229A1340012B1CD01F2C06D84346002BB4
:1028200032D00CAB2D221A550134229B0393219BED
:10283000029301940CAB00934B465A4607990698B5
:10284000FFF7E2FA15B0F0BCBB46B246A946A04677
:10285000F0BD219B002B13D04346002B02D10C333B
:1028600013420FD0219B013B2193190003E00CABD5
:1028700030221A5501348C42CED21F2CF7D9CBE727
:102880002199F8E72199F6E7229B5B0704D50CAB69
:102890002B221A550134C8E7229B1B07C5D50CAB68
:1028A00020221A550134C0E7FFFFEFFFFFFFEF7F43
:1028B00065CDCD4165CDCDC1744C0010784C001074
:1028C0006C4C0010684C0010604E00100000E03F9F
:1028D000F0B5DE4657464E464546E0B593B08246D3
:1028E0008B4690461193002900D1EBE20027554614
:1028F000119B1878002800D1E7E2252809D07C1C1C
:1029000043463A005946A847119B013311932700CB
:10291000EEE7013311930024119A11780B00203B4C
:10292000D8B2102803D88300D048C3589F460B0064
:10293000303BDBB2092B2CD92A292FD000230A9354
:10294000119B1A782E2A39D000239A46119A1378AF
:10295000683BD9B2122976D88B00C549CB589F461F
:1029600001231C4301321192D6E702231C4301329A
:102970001192D1E704231C4301321192CCE70823C2
:102980001C4301321192C7E710231C4301321192FC
:10299000C2E711A8FFF726FA0A90D1E71C9B1A1D7F
:1029A0001C921868002804DB0A90119B01331193D4
:1029B000C6E702231C4343420A93F6E78022D20073
:1029C00014435A1C11925A781300303BDBB2092B86
:1029D00004D92A2A07D000239A46B7E711A8FFF79F
:1029E00001FA8246B2E71C9B1A1D1C921868002847
:1029F00004DB8246119B01331193A7E70020F8E71F
:102A000080235B002343511C119152786C2A01D022
:102A10001C0018E0C0239B001C430131119112E0FF
:102A200080232343511C11915278682A01D01C0045
:102A300009E0C0231C430131119104E080235B00B5
:102A40001C4301321192119B18780300253BDAB226
:102A5000532A00D92CE29300864AD3589F468023FC
:102A60009B001C4301321192EDE780235B001C4365
:102A700001321192E7E7782809D0582838D06F281A
:102A800038D0622838D010239C430A2600E0102654
:102A9000582833D0692803D0642801D00C229443ED
:102AA000630501D50122944369282AD0642828D0DF
:102AB000A30500D59FE0E30500D5B8E0630600D488
:102AC000CAE01C9A111D1C911168FF220A4005944E
:102AD0000A9B0493534603930296002301930092AA
:102AE00043463A0059462800FFF76EFA070027E0F0
:102AF0001026CDE70826CBE70226C9E7202214439B
:102B0000C8E7A30520D4E30550D4630666D51C9A14
:102B1000111D1C911168FF220A40D317D11859408A
:102B200005940A9B0493534603930296D20F019295
:102B3000009143463A0059462800FFF745FA07003E
:102B4000119B01331193D3E61C9BDA1D07218A43A5
:102B5000110008311C91116853689C46DB170C93D7
:102B60000D930C9A0D9B100048400E906246534006
:102B70000F930E980F990C9A0D9B801A99410E9005
:102B80000F9108940A9B07935346069304960023DB
:102B900005936346DA0F02920090019143463A0092
:102BA00059462800FFF76EFA0700C9E71C9A111D65
:102BB0001C911268D317D118594005940A9B0493AD
:102BC000534603930296D20F0192009143463A0076
:102BD00059462800FFF7F8F90700B1E7230605D5A5
:102BE0001C9A111D1C910023D25E96E71C9A111DA0
:102BF0001C91126891E71C9BDA1D07218A43110082
:102C000008311C9108940A9B079353460693049637
:102C1000002305930293136854680093019443467C
:102C20003A0059462800FFF72DFA070088E71C9A5A
:102C3000111D1C9105940A9B04935346039302961D
:102C4000002301931368009343463A005946280035
:102C5000FFF7BAF9070073E723060DD51C9A111D7B
:102C60001C9112681204120C31E7C046804C00100F
:102C7000C44C0010104D00101C9A111D1C911268BC
:102C800025E746281AD01C9B0733072293431A00D6
:102C900008321C9204940A9A0392524602925C688B
:102CA0001B680093019443463A0059462800FFF7F9
:102CB00065FC0700119B0133119319E620231C4387
:102CC000E1E7672801D0472802D180231B011C437C
:102CD000452801D0472801D120231C431C9B0733E2
:102CE000072293431A0008321C9204940A9A039212
:102CF000524602925C681B680093019443463A0076
:102D000059462800FFF730FA0700119B0133119351
:102D1000EEE502231A002240924623421FD00124EE
:102D20001C9B1A1D1C927A1C9146187843463A0047
:102D30005946A8475346002B16D1119B01331193D6
:102D40004F46D5E5561C434659462020B847230038
:102D500032005C1C9D42F5D83D001700E0E70123DE
:102D60003A002F000A9DF4E74A46A9460A9D06E06C
:102D7000571C434659462020C84734003A00661C79
:102D8000A542F5D84D469146D7E71C9B1A1D1C92CB
:102D90001B6899465346002B00D1013B4E4601E08B
:102DA000013613003278002A02D05A1E002BF7D1C8
:102DB0004B46F21A10928023DB0026001E401C4274
:102DC00003D0524501D95346109302231A002240E2
:102DD0000B92234205D03A0037004C46A94655468F
:102DE00020E03A00109B5F46B3462E0006E0551CDB
:102DF000434639002020B04723002A005C1C0A9972
:102E00009942F4D835005E46BB46109437004C46D4
:102E1000A946554606E01D000134561C4346594656
:102E2000C84732002078002804D0002FF4D06B1E51
:102E3000002DF0D117004D460B9B002B03D1119BA9
:102E40000133119354E50A9F109B06E0561C43463C
:102E500059462020A847230032005C1C9F42F5D829
:102E60001700ECE721231C431C9B1A1D1C921B68B6
:102E7000009305940823049353460393102302936D
:102E80000023019343463A0059462800FFF79CF877
:102E90000700119B013311932AE57C1C43463A003D
:102EA00059462520A847119B0133119327001FE5A0
:102EB0007C1C43463A005946A847119B01331193A5
:102EC000270015E50A4B9A4610E5AA46474502D366
:102ED00043465A1E00E03A00434659460020D04778
:102EE000380013B0F0BCBB46B246A946A046F0BDC0
:102EF000D51D001000B585B002900391012100930B
:102F000013004A4202A90248FFF7E2FC05B000BDE7
:102F1000D71D001001480421014B1847D0020020A2
:102F2000452F001010B5010018231B8814221088AB
:102F3000984710BD10B5010018231B881622108871
:102F4000984710BDF0B5C64600B507000E00002535
:102F50000123984600E00135B5420AD2AC003C1985
:102F60002068FFF7DFFF20600028F4D10023984697
:102F7000F1E7404680BCB846F0BD0000124A936FAE
:102F80009B0815D29066D166002905D0FFE7FFE7C0
:102F9000FFE7516F106F704704B580210906C21713
:102FA0005140002800D0C84301F002F9002104BDBF
:102FB000F0B5146E556E576F166FFFF7E3FF14668A
:102FC000556657671667F0BD000000D0114A936F31
:102FD0009B0813D210665166002905D0FFE7FFE772
:102FE000FFE7516F106F704704B5002801D0002033
:102FF000C04301F0DDF8002104BDC046F0B5146EF9
:10300000556E576F166FFFF7E5FF146655665767E5
:103010001667F0BD000000D094464E4A926F9208A9
:10302000624601D230E0C046F0B54A4EB56F6D0839
:10303000FCD3346E756E776F366F00F025F89446CA
:10304000444A14665566576716676246F0BDC04627
:103050009446404A926F9208624601D258E0C046B8
:10306000F0B53C4EB56F6D08FCD3346E756E776F5E
:10307000366F00F04DF89446364A14665566576729
:1030800016676246F0BDC046002B24DB11D0002934
:103090003EDA00B5C943404200D1013100F038F8B2
:1030A000C943404200D10131DB43524200D10133D8
:1030B00000BD002AEBD1002801D1002905D0002055
:1030C000C90FC90701D1C043410800B501F068F834
:1030D0000022002300BD00B500290ADBDB43524279
:1030E00000D1013300F014F8C943404200D101314E
:1030F00000BDC943404200D10131DB43524200D1FF
:10310000013300F005F8DB43524200D1013300BD2A
:10311000002923D1002B18D1002A0CD0BC460D4F1A
:1031200038667A6600210023FFE7FFE7FFE77A6F42
:10313000386F67467047002801D00748010000B586
:1031400001F02EF80022002300BD02000B00002039
:1031500000217047000000D0FFFFFFFF002B00D0D0
:10316000BDE0130C26D1002AE7D080B4104F396699
:103170007A66FFE7FFE730B4040C7B6F396F1B04FE
:1031800023433B66FFE7FFE7FFE7C04684B27B6F60
:103190003D6F1B0423433B66FFE7FFE7C046002368
:1031A0002C042D0C7A6F386F00196941B0BC704740
:1031B000000000D0F0B594460025140E01D1120293
:1031C0000835140F01D112010435940F01D192007A
:1031D0000235D40F01D152000135D40B0134254FF3
:1031E0007C66254C3C660E0C93B2FFE7FFE7FFE7D9
:1031F0003C6F6643360C7703BE467343DF0B5B04BC
:10320000C01AB941130C7343DB18C91ACE086643C0
:10321000360CB64493B273431F0F1B01C01AB94159
:10322000130C73431F0B1B05C01AB941860D8F0287
:103230003E436643360C092D24DB520A7243801A42
:103240007703460A6643360C16235B1BDE40DF40DD
:10325000BF1964466643821B70460435063301007D
:10326000D940A840C01900D30131A24206D20023A0
:10327000F0BD0000000000D0FFFFFFFF121B013077
:10328000F3D3F1E709277F1BFE406446A2B27243E5
:10329000801A00D20139220C7243130C1204821AD4
:1032A00099410B007046043513370100F940A840DE
:1032B000801900D30131002B02D1A2420AD2F0BD05
:1032C000013000D30131121BFAD2013BF8D1A242E6
:1032D00000D2F0BD013000D30131121BF7E7F0B589
:1032E0001C0C00D080E00CB400251C0A04D11B0289
:1032F000160E3343120208351C0B04D11B01160FA6
:103300003343120104359C0B04D19B00960F3343C9
:1033100092000235DC0B02D192185B4101351C0092
:10332000971864410134464F7C66464C3C660E0C4F
:10333000FFE7FFE7FFE7C0463C6F6643360C7703C5
:10334000BE4697B27743C01B00D20139C01B00D2E2
:1033500001399FB27743C91BC91B170C77437E0401
:10336000FF0B801BB941CE086643360C0C2D33DBB6
:10337000B644120B1F053A431B0B97B27743C01B91
:1033800000D201399FB27743C91B170C77433E0423
:103390003F0C801BB941860D8F023E4366432927AF
:1033A0007F1BFE400C3D7746AF40BF1930BCA2B238
:1033B000ABB272437343801A9941220C7243130CCF
:1033C0001204801A994102000B000137001BA94129
:1033D000F9D2781E0021F0BD0C277F1BFE407746F6
:1033E0007F0BAF40FF19E0E700245D1C07D0144FAE
:1033F0007D663966FFE7FFE7FFE7FFE73C6F95B2C1
:103400009EB265436643401BB141150C1E0C6543DB
:10341000664336042F0C3E432D04401BB1419942B4
:1034200004D202000B0020000021F0BD01D1904227
:10343000F7D3801A994101349942F2D3F6E700009C
:10344000000000D0FFFFFFFF48404140484018B453
:103450001B4B5B68FC46019308BD04DF133700106B
:1034600018B4174B1B68FC46019308BD00DF1D37DD
:1034700000109446134A926F920809D2624618B41B
:103480000F4BDB68FC46019308BD0CDFD5390010FB
:103490000C4AF0B5146E556E576F166F6246FFF703
:1034A000EEFF084A1466556657671667F0BD18B4F4
:1034B000034B9B68FC46019308BD08DF7938001078
:1034C000EC040020000000D0FFB5504042405040C6
:1034D00059404B40594000E0FFB5154F4C00640D7A
:1034E00003D0BC4204D10C0314D80020090D0905F7
:1034F0005C00640D03D0BC4204D11C030AD8002236
:103500001B0D1B0501264B4009D44B4003D58B42B4
:1035100000D18242FFBD9942FCD19042FFBD0B43D6
:10352000DB1803431343F5D0C9434918FFBD00001E
:10353000FF07000000B5FFF7CFFF804100BDC04688
:1035400000B5FFF7C9FF01D9002000BD012000BD73
:1035500000B5FFF7B9FF01D9002000BD012000BD73
:1035600000B5FFF7B1FF804100BD012040054A00D2
:10357000121804D85A00121801D8002070470120F0
:1035800070470020704700000021002805D17047D7
:10359000C1174840401AFAD0C90713B5064B1B683B
:1035A00098470CBC441CA2401005120B0349091B90
:1035B00009051943114310BDEC0500201F0400004C
:1035C00010B54C00620D8023D218DB00D21A5B05C7
:1035D0007E2A10DD9E3A13DACC17090349081943F5
:1035E0005242D140640001341532202A05DAD0401D
:1035F0000843604310BD002010BD0846604310BD65
:10360000C80FC018013810BD18B4044B5B6AFC46E3
:10361000019308BD24DF013C00100000EC040020F1
:1036200070B513231C78012C0FD0012C0FDC022C59
:1036300002DC1D4A1D4B9A6470BD99001A481B4A52
:10364000885001331F2BF8D9EFE70023FAE7184819
:10365000FFF770FC05001748FFF76CFC0238037891
:103660009B007F2B19DD80222900104800F038FCD8
:10367000022CDCD1104B1A88B5231B029A4209D1C7
:103680000E4B1A880E4B9A4204D10E4B1A880E4BE1
:103690009A42CCD00020FDF7C3FF0C4B0C4A3021DE
:1036A0000C48FDF79FFFC046D9360010EC040020FF
:1036B000534400005346000054380000D83800003E
:1036C000494600009C38000059460000B04E0010EA
:1036D000584F0010104F001007B56046002800D169
:1036E00000BE01880A0A0230DF2AFAD1C9B2820874
:1036F00004D3028840880004104300E00068024AB6
:103700005050039007BD0000EC0400200FB403BC30
:103710000CBCF0B50124E407634000E0F0B50C0DEB
:10372000CF0F661E3605891B640503D3C94340428B
:1037300000D30131640D03D0661CF60A07D0E41BE8
:1037400000207F00791C89078912803C24031D0D0D
:10375000DF0F6E1E36059B1B6D0503D3DB43524204
:1037600000D301336D0D03D06E1CF60A07D0ED1B9C
:1037700000227F007B1C9B079B12803D2D032F1B8B
:10378000661B58D4A446202E46DA20371400BC40CD
:103790001D00BD40F24033412A4380185941CB0FF0
:1037A00005D0C943C04300226442504151416246A2
:1037B0004D0D28D10D0D07D100281FD024194041EF
:1037C0004941013A0D0DF9D0640006D3013000D310
:1037D0000131002C01D140084000013A0BD4941C67
:1037E000E40A04D112051144DB071944F0BDD907DE
:1037F000204B194300E0D9070020F0BD0029DDD19E
:10380000002CDBD1F0BD0132C6074008CD072843AC
:103810004908002EE1D0D9E73C2E29DA203E403776
:103820001400BC4000D00124F24014431A00BB40F5
:103830001C43D317ACE7AC46202F08DA203604002F
:10384000B4400D00B540F84039412843A5E73C2F6E
:103850000CDA203F40360400B44000D00124F84088
:1038600004430800B1400C43C117EAE710001900F7
:10387000002494E70000F07FF0B50C0D661E3605BD
:10388000891BE60A6405640D02D0651CED0A04D0AC
:10389000002001210905803C2403A4461C0D671E5D
:1038A0003F05DB1BE70A6405640D02D0651CED0AC9
:1038B00004D0002201231B05803C2403774064448C
:1038C00097B484B296B27443070C7E43150C6F43D1
:1038D00080B26843361802D3012000043F18300438
:1038E000350C00197D41844688B29AB250430C0CC5
:1038F00062431F0C7C438EB27E43921902D3012691
:103900003604A4191604170C3618674101BC81B29D
:103910009AB25143040C62431B0C5C4380B258437F
:10392000121802D30120000424181004130C4018AC
:1039300063412D185E410020474106BC88B293B216
:1039400058430C0C6343120C544389B251435B1827
:1039500002D301210904641819041A0C09186241E0
:103960006D1856410020474118BCF902720D1143F1
:10397000F0026A0D1043ED020A0D03D16D194041AA
:103980004941013B124E9B1B7600B3420ED26D00A3
:1039900007D30130002671416646354301D1400806
:1039A00040001B05C918E4072144F0BD0BDA0133C0
:1039B00006D1013004D101314F0D01D04908F2E7A1
:1039C000E1070020F0BD013631050020EBE70000E3
:1039D000FF030000F0B51C0D671E3F05DB1BE70A67
:1039E0006405640D02D0661CF60A04D0002201238F
:1039F0001B05803C2403D0252D060026F6432E66A9
:103A00001E096E66CE0FF619B44649004F0D02D05E
:103A10007E1CF60A03D000200021403F3F033E1BDE
:103A2000B600B444013F7F05C91B49082E6F01361B
:103A300076089C02950D25437543ED137543AD1330
:103A400001356D10F603761B0CB4CC02450D2C43EA
:103A5000A2B2B3B25A43270C7B43350C6F43A4B2D6
:103A60006C431B1902D3012424043F191C041D0CB0
:103A7000A4187D4124196D41009A91B2ACB2614302
:103A8000170C7C432B0C5F4392B25A43A41802D309
:103A900001221204BF182204230C52187B41019CFE
:103AA0006C431B19520ED9010A434401A01A81B27A
:103AB000B2B2514303145A43360C734387B277436F
:103AC000D617D21900277E4136049B191704160C0D
:103AD0007F185E417316ED18F3010026803375419F
:103AE000A90F06D16400690AE8055B0A184309D2E8
:103AF0002FE00422944480337541A90AA8059B0A4B
:103B0000184326D3404149412404009A019B0D00EB
:103B10005543641B4343E41A95B286B27543170CB0
:103B20007E43030C5F4392B25A43B61802D301227C
:103B30001204BF183204330C52197B4152429C418B
:103B4000002C02D40022013051414008CA07104322
:103B5000490802B06246D7079210084BD218084BAA
:103B60009A4203D212058918C919F0BD0020002A13
:103B700001DC3900F0BD01331905F5E7FD03000054
:103B8000FE070000624618CA944600291ADAC018D7
:103B900061415B463B415C46B4405246FA40224399
:103BA00044464D4662416B41904699462B46B34090
:103BB0003D41FC401C4352465B46A241AB4192460C
:103BC0009B467047C01AA1414B463B414C46B4400E
:103BD0004246FA40224354465D4662416B4192465A
:103BE0009B462B46B3403D41FC401C4342464B465E
:103BF000A241AB4190469946704700200021704792
:103C0000002200B5203200F004F8080000BD0000DA
:103C100000220B15F1D410B5944600F02FF81414BF
:103C2000013400DA0021CB17134C20476244343AA8
:103C30000CD40C2A07DA0400914090405242203202
:103C4000D440214310BDD843D94310BD203207D4FE
:103C50000C469440524220321141D040204310BDC6
:103C60000800C917203203D452422032104110BD3F
:103C70001800190010BD00002D3C00100A0DCC0FDB
:103C8000531E1B05C91A520503D3C943404200D332
:103C90000131520D03D0531CDB0A07D0121B002048
:103CA0006400611C89078912803A1203014BD21A01
:103CB00070470000FF030000484041404840002397
:103CC0009C46114B5B68184700239C460E4B1B68B3
:103CD00018470E4A936F9B0804D200239C460A4B58
:103CE000DB681847F0B5146E556E576F166FFFF707
:103CF000F4FF064A1466556657671667F0BD002341
:103D00009C46014B9B681847F0050020000000D03E
:103D1000491A002808D1084670470000C10FC9079A
:103D200000D54042002817D0F44603B40B4B1B6863
:103D3000984706BC81409E384042803107D20B062E
:103D400007D04900490AC0051043084360470130C5
:103D5000F8E7490A8902F5E770470000EC05002002
:103D600000239C46014B5B6A18470000F0050020C9
:103D700000239C46014B1B6D18470000F0050020F6
:103D800070B513231D782A48FFF7D4F80400012DDD
:103D900011D0012D09DDA31E1B789B007F2B40DD78
:103DA00080222100234800F09BF82348FFF7BAF84F
:103DB000224B186070BD542201001E4800F090F89C
:103DC0001F4B1A881F4B9A421CD1A7239B011A88AC
:103DD0001D4B9A4216D11D4B1A881D4B9A4211D188
:103DE0001C4B1A8894239B019A420BD11A4B1A88B8
:103DF0001A4B9A4206D11A4B1A681A4B9A4201D1B1
:103E0000152307E01848FDF70BFC99001748094AED
:103E1000885001331F2BF8D9144A064B1A62DA6115
:103E2000B7E7134B134A42211348FDF7DBFBC046AB
:103E300053460000F00500204C330000EC05002044
:103E4000EE290000C40F0000C20D0000962B0000F8
:103E5000C0B50000182B0000CC2A000010B50000EF
:103E6000FC2C000051ED87648C480010913E00103E
:103E70006C4F0010E84F0010A04F001010B5FFF776
:103E800077FF0249FFF73BFF10BDC0463BAAB83F92
:103E900007B56046002800D100BE01880A0A02303A
:103EA000DF2AFAD1C9B2820804D30288408800040C
:103EB000104300E00068024A5050039007BD000024
:103EC000F005002001480421014B1847E0020020C2
:103ED000452F0010014B1B6818470000E00200202E
:103EE000014B5B6818470000E0020020F8B50700AE
:103EF0000D001600437C002B02D0002400200CE0B3
:103F000003681100280098472DE03B7C10E0022157
:103F100015483B689847601C0134B44214DA002C01
:103F2000F3DD2B19013B1B780D3B5A425341DBB2A9
:103F30002A5D0A2AF0D1002BEED1A042E7DA211A3D
:103F400028183B689847E2E7B04203DA311A28188C
:103F50003B689847002E06DDAD19013D2B780D3BDF
:103F60005A4253413B74F8BD6450001070B50500CF
:103F70000368002B16D00C4B1C6805E0290004C90F
:103F80002000FFF7B3FFE468002C09D02368002B62
:103F9000F9D0064B1B68002BF0D0A342F3D1EDE71C
:103FA00000232B6070BDC046D4040020D80400203C
:103FB00070B505000C000B68802B05D021684B1CE8
:103FC00023606418257170BD0800FFF7CFFFF5E787
:103FD00010B582B0D0231B0600241C5701A9074846
:103FE00000F0EEF8002806D1019B9C4203D0034864
:103FF00000F0EEF8012002B010BDC046F002002033
:1040000010B5024800F0C4F810BDC046F002002010
:10401000F0B5C64600B582B006000D001700FFF7E8
:10402000D7FF80466B1C02D0184B1C6805E030009F
:1040300000F07CF80500F7E7E468002C18D023684E
:10404000002BF9D0124B1B68002B01D0A342F3D1F7
:104050002A0031002000FFF749FF002FECD06B460B
:10406000D91D0A230B7001222000FFF73FFFE3E771
:104070004346002B06D16B1E9D41E8B202B080BCC6
:10408000B846F0BDFFF7BCFFF5E7C046D4040020FA
:10409000D804002010B5064B1C6801E09847E4687E
:1040A000002C03D06368002BF8D1F8E710BDC046A0
:1040B000D404002070B5050000F038F80400012297
:1040C00001002800FFF7A4FFFFF7E4FF200070BD08
:1040D00070B5A2B004000E00FFF77AFF050084223D
:1040E000002101A8FFF7F6FE3300220001A90848CD
:1040F000FEF700FF040001A8FFF738FFFFF7CAFF33
:10410000002D02D1200022B070BDFFF779FFF9E742
:10411000B13F00100FB400B583B004A901C90191EB
:10412000FFF7D6FF03B008BC04B0184710B58307EB
:104130000AD00300032102E001330B4205D01A78B4
:10414000002AF9D1181A10BD030019680C4A0D4C49
:104150008A188A4322420FD15968094A04338A18BF
:104160008A43224208D15968054A04338A188A438F
:104170002242F1D000E001331A78002AFBD1E1E7B6
:10418000FFFEFEFE80808080F8B5C0460000000083
:1041900001B40248844601BC604700BFB101002061
:1041A00001B40248844601BC604700BF45020020BC
:1041B00001B40248844601BC604700BF45020020AC
:1041C00001B40248844601BC604700BF550100208D
:1041D00001B40248844601BC604700BFC100002012
:1041E000636861696E5F746F203C3D204E554D5F82
:1041F000444D415F4348414E4E454C530000000042
:10420000433A5C565341524D5C73646B5C70696316
:104210006F5C7069636F2D73646B5C7372635C7247
:1042200070325F636F6D6D6F6E5C68617264776131
:1042300072655F646D615C696E636C7564652F683F
:10424000617264776172652F646D612E6800000091
:1042500073697A65203D3D20444D415F53495A457D
:104260005F38207C7C2073697A65203D3D20444D79
:10427000415F53495A455F3136207C7C2073697A0F
:1042800065203D3D20444D415F53495A455F3332DF
:104290000000000073697A655F62697473203C20D6
:1042A0003332000064726571203C3D204452455118
:1042B0005F464F52434500006368616E6E656C5FF8
:1042C000636F6E6669675F7365745F6472657100C2
:1042D0006368616E6E656C5F636F6E6669675F735E
:1042E00065745F72696E67006368616E6E656C5FAE
:1042F000636F6E6669675F7365745F7472616E7316
:104300006665725F646174615F73697A650000005D
:104310006368616E6E656C5F636F6E6669675F731D
:1043200065745F636861696E5F746F0072742D3EBF
:10433000616C61726D5F6964203D3D2069640000BD
:10434000433A5C565341524D5C73646B5C706963D5
:104350006F5C7069636F2D73646B5C7372635C6315
:104360006F6D6D6F6E5C7069636F5F74696D655CB6
:1043700074696D652E6300006964202626206964D7
:10438000203C3D20706F6F6C2D3E686561702D3E46
:104390006D61785F6E6F646573000000256C6C64FE
:1043A0002028686920253032782900006964202699
:1043B00026206964203C3D20686561702D3E6D615A
:1043C000785F6E6F64657300433A5C565341524D9B
:1043D0005C73646B5C7069636F5C7069636F2D7391
:1043E000646B5C7372635C636F6D6D6F6E5C706940
:1043F000636F5F7574696C5C696E636C7564652F5F
:104400007069636F2F7574696C2F70686561702EA9
:1044100068000000706172656E745F69640000007E
:104420006368696C645F69640000000070617265B4
:104430006E745F696420213D206368696C645F6904
:10444000640000002170685F636F6E7461696E7351
:104450005F6E6F646528706F6F6C2D3E686561706C
:104460002C2072657573655F6964290075735F73CD
:10447000696E63655F626F6F74203C3D20494E54E6
:1044800036345F4D41580000433A5C565341524D1B
:104490005C73646B5C7069636F5C7069636F2D73D0
:1044A000646B5C7372635C636F6D6D6F6E5C70697F
:1044B000636F5F626173655C696E636C7564652FC1
:1044C0007069636F2F74797065732E680000000047
:1044D00072656D6F7665645F6964203D3D206E6531
:1044E00078745F696400000063616C6C6261636B87
:1044F00000000000706F6F6C2D3E616C61726D5F2B
:10450000696E5F70726F6772657373203D3D206DD9
:10451000616B655F7075626C69635F69642869646B
:104520005F686967682C206E6578745F696429002C
:104530006964202626202170685F636F6E7461694C
:104540006E735F6E6F646528686561702C206964A6
:10455000290000007570646174655F75735F73692D
:104560006E63655F626F6F7400000000616C617262
:104570006D5F706F6F6C5F616C61726D5F63616CBA
:104580006C6261636B0000006765745F656E7472D6
:10459000790000006765745F656E7472795F6964A5
:1045A0005F6869676800000070685F667265655FD4
:1045B0006E6F64650000000070685F6164645F6333
:1045C00068696C645F6E6F646500000070685F69A5
:1045D0006E736572745F6E6F6465000070685F670C
:1045E00065745F6E6F6465006164645F616C6172C5
:1045F0006D5F756E6465725F6C6F636B00000000C9
:10460000486172647761726520616C61726D20250A
:104610006420616C726561647920636C61696D65A9
:104620006400000074696D65725F68772D3E696E85
:1046300074732026203175203C3C20616C61726DC2
:104640005F6E756D00000000433A5C565341524D59
:104650005C73646B5C7069636F5C7069636F2D730E
:10466000646B5C7372635C7270325F636F6D6D6FED
:104670006E5C68617264776172655F74696D6572A2
:104680005C74696D65722E6300000000686172647D
:10469000776172655F616C61726D5F7365745F7481
:1046A00061726765740000006D74782D3E636F72EF
:1046B000652E7370696E5F6C6F636B00433A5C5676
:1046C0005341524D5C73646B5C7069636F5C7069DD
:1046D000636F2D73646B5C7372635C636F6D6D6F7E
:1046E0006E5C7069636F5F73796E635C6D75746522
:1046F000782E63006D74782D3E72656375727369F0
:104700006F6E5F7374617465203D3D204D41585F4D
:10471000524543555253494F4E5F535441544500FF
:104720006D74782D3E6F776E657220213D204C4F61
:10473000434B5F494E56414C49445F4F574E45529B
:104740005F4944006D74782D3E72656375727369BC
:104750006F6E5F7374617465000000006D75746541
:10476000785F6578697400006D757465785F656E53
:104770007465725F626C6F636B696E670000000046
:10478000726F6F745F696400433A5C565341524DD7
:104790005C73646B5C7069636F5C7069636F2D73CD
:1047A000646B5C7372635C636F6D6D6F6E5C70697C
:1047B000636F5F7574696C5C70686561702E63000F
:1047C0002170685F6765745F6E6F646528686561F6
:1047D000702C20726F6F745F6964292D3E7369625B
:1047E0006C696E67000000002170685F6765745F28
:1047F0006E6F646528686561702C20726F6F745FDE
:104800006964292D3E706172656E7400666F756E05
:10481000640000006E65775F7375625F7472656532
:1048200020213D20686561702D3E726F6F745F6955
:104830006400000070685F72656D6F76655F616E21
:10484000645F667265655F6E6F64650070685F7255
:10485000656D6F76655F616E795F686561640000A4
:1048600070685F6164645F6368696C645F6E6F64E5
:104870006500000070685F6765745F6E6F64650057
:104880002C2066756E6374696F6E3A20000000001C
:10489000617373657274696F6E20222573222066BE
:1048A00061696C65643A2066696C65202225732213
:1048B0002C206C696E65202564257325730A000021
:1048C0000A2A2A2A2050414E4943202A2A2A0A002D
:1048D0000A0000007372635F66726571203E3D20BE
:1048E0006672657100000000433A5C565341524DB8
:1048F0005C73646B5C7069636F5C7069636F2D736C
:10490000646B5C7372635C7270325F636F6D6D6F4A
:104910006E5C68617264776172655F636C6F636B14
:10492000735C636C6F636B732E630000636C6F6307
:104930006B5F636F6E6669677572650021286465D9
:104940006C7461203E3E203131752900433A5C563B
:104950005341524D5C73646B5C7069636F5C70694A
:10496000636F2D73646B5C7372635C7270325F6330
:104970006F6D6D6F6E5C68617264776172655F699F
:1049800072715C6972712E6300000000637572724F
:10499000656E74203D3D205F5F756E68616E646C6E
:1049A00065645F757365725F697271207C7C2063DA
:1049B000757272656E74203D3D2068616E646C6531
:1049C000720000006972715F68616E6465725F6396
:1049D0006861696E5F667265655F736C6F745F684E
:1049E000656164203E3D2030000000007674616205
:1049F0006C655F68616E646C6572203D3D205F5F31
:104A0000756E68616E646C65645F757365725F690D
:104A100072710000212828282875696E74707472DC
:104A20005F7429767461626C655F68616E646C6541
:104A30007229202D20282875696E747074725F7435
:104A4000296972715F68616E646C65725F63686129
:104A5000696E5F736C6F747329202D203129257363
:104A6000697A656F662873747275637420697271F0
:104A70005F68616E646C65725F636861696E5F73C5
:104A80006C6F74292900000030783163203D3D208F
:104A9000282A696E7374293E3E313175000000008A
:104AA00021657863657074696F6E207C7C20657801
:104AB00063657074696F6E203D3D206E756D202BAF
:104AC0002031360066616C736500000069735F73A6
:104AD00068617265645F6972715F7261775F686156
:104AE0006E646C657228736C6F745F68616E646C61
:104AF00065722900657863657074696F6E000000E7
:104B00006972715F6164645F7461696C5F746F5F27
:104B1000667265655F6C697374000000696E736529
:104B200072745F6272616E63685F616E645F6C690C
:104B30006E6B00006972715F72656D6F76655F689C
:104B4000616E646C657200006D616B655F627261BD
:104B50006E6368007265736F6C76655F6272616E1A
:104B6000636800006972715F7365745F6578636C78
:104B700075736976655F68616E646C6572000000CC
:104B80006662646976203E3D203136202626206606
:104B900062646976203C3D2033323000433A5C56F3
:104BA0005341524D5C73646B5C7069636F5C7069F8
:104BB000636F2D73646B5C7372635C7270325F63DE
:104BC0006F6D6D6F6E5C68617264776172655F7046
:104BD0006C6C5C706C6C2E630000000028706F734E
:104BE000745F64697631203E3D2031202626207096
:104BF0006F73745F64697631203C3D20372920262D
:104C0000262028706F73745F64697632203E3D20E1
:104C10003120262620706F73745F64697632203CE1
:104C20003D20372900000000706F73745F6469765F
:104C300032203C3D20706F73745F646976310000F0
:104C40007265665F6D687A203C3D202876636F5FF1
:104C500066726571202F203136290000706C6C5F00
:104C6000696E697400000000666E6900666E692BEB
:104C7000000000006E616E00666E692D000000008D
:104C80007E2900102E2900102E29001088290010DE
:104C90002E2900102E2900102E2900102E29001078
:104CA0002E2900102E2900102E2900107429001022
:104CB0002E2900106A2900102E2900102E2900101C
:104CC00060290010202A0010462A00105E2A0010D9
:104CD000462A0010002A0010462A0010462A00101A
:104CE000462A0010462A0010462A0010462A0010C4
:104CF000462A00103C2A0010462A0010462A0010BE
:104D0000462A0010462A0010462A00106A2A00107F
:104D10009A2E0010B02E0010B02E0010B02E0010F1
:104D2000B02E0010B02E0010B02E0010B02E0010CB
:104D3000B02E0010B02E0010B02E0010B02E0010BB
:104D4000B02E0010B02E0010B02E0010B02E0010AB
:104D5000B02E0010B02E0010B02E0010B02E00109B
:104D6000B02E0010B02E0010B02E0010B02E00108B
:104D7000B02E0010B02E0010B02E0010B02E00107B
:104D8000B02E0010B02E0010B02E0010B02E00106B
:104D9000C22C0010822C0010C22C0010B02E00106B
:104DA000B02E0010B02E0010B02E0010B02E00104B
:104DB000B02E0010B02E0010B02E0010B02E00103B
:104DC000B02E0010B02E0010B02E0010B02E00102B
:104DD000B02E0010B02E0010B02E0010762A001059
:104DE000B02E0010B02E0010B02E0010B02E00100B
:104DF000B02E0010B02E0010B02E0010B02E0010FB
:104E0000B02E0010762A0010122D0010762A001005
:104E1000C22C0010822C0010C22C0010B02E0010EA
:104E2000762A0010B02E0010B02E0010B02E001008
:104E3000B02E0010B02E0010762A0010642E001044
:104E4000B02E0010B02E00108A2D0010B02E0010D1
:104E5000762A0010B02E0010B02E0010762A001016
:104E6000000000000000F03F0000000000002440AF
:104E700000000000000059400000000000408F408A
:104E8000000000000088C34000000000006AF840F5
:104E90000000000080842E4100000000D012634119
:104EA0000000000084D797410000000065CDCD418F
:104EB0002A282875696E74385F74202A29282828C2
:104EC000766F6964202A29726F6D5F646174615F17
:104ED0006C6F6F6B757028726F6D5F7461626C655B
:104EE0005F636F6465282753272C202746272929CD
:104EF000292D322929202A2034203E3D2053465F87
:104F00005441424C455F56325F53495A45000000B8
:104F1000433A5C565341524D5C73646B5C706963F9
:104F20006F5C7069636F2D73646B5C7372635C722A
:104F300070325F636F6D6D6F6E5C7069636F5F641D
:104F40006F75626C655C646F75626C655F696E69D4
:104F5000745F726F6D2E63005F5F61656162695F90
:104F6000646F75626C655F696E6974002A282875C4
:104F7000696E74385F74202A2928726F6D5F7461BE
:104F8000626C652D322929202A2034203E3D205391
:104F9000465F5441424C455F56325F53495A450083
:104FA000433A5C565341524D5C73646B5C70696369
:104FB0006F5C7069636F2D73646B5C7372635C729A
:104FC00070325F636F6D6D6F6E5C7069636F5F668B
:104FD0006C6F61745C666C6F61745F696E69745F3D
:104FE000726F6D2E630000005F5F61656162695FD3
:104FF000666C6F61745F696E697400004465627508
:1050000067000000626F6F74325F7732357130383D
:1050100030000000312E322E300000007069636FC6
:1050200000000000426172654D6574616C5F55411E
:10503000525400004F637420203720323032310048
:1050400006005250BBFF3CB61C50001006005250E8
:10505000E182887F0450001006005250D3F0754260
:08506000FC4F00100D0A0000D6
:10506800B4020010A80200109C020010405000106A
:0C507800900200104C5000105850001026
:1050840010B50368002B1CD11E4B1F4A1A211F4860
:1050940000F0BAF802714379002B2AD0FF2B02D119
:1050A400013B437125E01A4B174A2121174800F0B0
:1050B400ABF80368BFF35F8F00221A6081F3108896
:1050C40020BF0268EFF3108172B61368002BFCD086
:1050D400BFF35F8FD0231B0600229A560423C356C6
:1050E4005C1CD7D09342E4D14379012BE1D9013B35
:1050F40043710368BFF35F8F00221A6081F3108845
:1051040010BDC046A846001068470010BC460010F9
:10511400F446001010B503000068EFF3108C72B66B
:105124000268002AFCD0BFF35F8FD0221206002051
:10513400105604229A56541C0DD082420ED00029D7
:1051440013D00A6000201B68BFF35F8F00221A602F
:105154008CF3108810BD18710120F4E758790128E8
:10516400EDD9013858710120EDE70020EBE700008C
:1051740010B50268EFF3108172B61368002BFCD0EF
:10518400BFF35F8F0423C35601330DD04379002B43
:1051940010D1FF3303710368BFF35F8F00221A60DD
:1051A40081F3108840BF10BD124B134A632113488A
:1051B40000F02AF80133DBB24371002B09D0FF2B36
:1051C4000DD00368BFF35F8F00221A6081F310884B
:1051D400E9E70B4B084A6921084800F015F8037108
:1051E4000368BFF35F8F00221A6081F3108840BF09
:1051F400D9E7C046204700105C470010BC460010A9
:10520400444700107047C04601B40248844601BCBC
:10521400604700BFE5150010100000007402002074
:10522400000000004003002094040020000000005F
:1052340000000000A40400200000000000000000A2
:105244001000000000000000000001000000000049
:105254000000000000000200000000000000000048
:105264000000030000000000000000000000FF0038
:105274000000000000B5486801318E4600477046C2
:1052840009380149884700BD7D1B0010000000005B
:10529400503300004C3300005433000052330000FC
:1052A4004D5300004D4300005334000043340000CC
:1052B4000000000000000000C53E0010152F001083
:0C52C40021360010813D0010ED020010AA
:04000005100001E9FD
:00000001FF
